:020000000328D3
:1000060083160313860187018312860187016730F1
:1000160086000630FB001330FC00AD30FD00FD0B02
:100026001228FC0B1228FB0B1228000000007F3060
:1000360086000630FB001330FC00AD30FD00FD0BE2
:100046002228FC0B2228FB0B222800000000073088
:1000560086000630FB001330FC00AD30FD00FD0BC2
:100066003228FC0B3228FB0B3228000000007D30C2
:1000760086000630FB001330FC00AD30FD00FD0BA2
:100086004228FC0B4228FB0B4228000000006D3082
:1000960086000630FB001330FC00AD30FD00FD0B82
:1000A6005228FC0B5228FB0B522800000000663039
:1000B60086000630FB001330FC00AD30FD00FD0B62
:1000C6006228FC0B6228FB0B6228000000004F3000
:1000D60086000630FB001330FC00AD30FD00FD0B42
:1000E6007228FC0B7228FB0B7228000000005B30A4
:1000F60086000630FB001330FC00AD30FD00FD0B22
:100106008228FC0B8228FB0B8228000000000630A8
:1001160086000630FB001330FC00AD30FD00FD0B01
:100126009228FC0B9228FB0B9228000000003F301F
:1001360086000630FB001330FC00AD30FD00FD0BE1
:10014600A228FC0BA228FB0BA228000000008601B7
:10015600673087000630FB001330FC00AD30FD0031
:10016600FD0BB328FC0BB328FB0BB32800000000E3
:100176007F3087000630FB001330FC00AD30FD00F9
:10018600FD0BC328FC0BC328FB0BC3280000000093
:10019600073087000630FB001330FC00AD30FD0051
:1001A600FD0BD328FC0BD328FB0BD3280000000043
:1001B6007D3087000630FB001330FC00AD30FD00BB
:1001C600FD0BE328FC0BE328FB0BE32800000000F3
:1001D6006D3087000630FB001330FC00AD30FD00AB
:1001E600FD0BF328FC0BF328FB0BF32800000000A3
:1001F600663087000630FB001330FC00AD30FD0092
:10020600FD0B0329FC0B0329FB0B0329000000004F
:100216004F3087000630FB001330FC00AD30FD0088
:10022600FD0B1329FC0B1329FB0B132900000000FF
:100236005B3087000630FB001330FC00AD30FD005C
:10024600FD0B2329FC0B2329FB0B232900000000AF
:10025600063087000630FB001330FC00AD30FD0091
:10026600FD0B3329FC0B3329FB0B3329000000005F
:100276003F3087000630FB001330FC00AD30FD0038
:10028600FD0B4329FC0B4329FB0B4329000000000F
:0602960087010A284D2932
:02400E004A2F37
:00000001FF
